{
  "contractName": "EnvironmentalData",
  "abi": [
    {
      "anonymous": false,
      "inputs": [
        {
          "indexed": true,
          "internalType": "uint256",
          "name": "timestamp",
          "type": "uint256"
        },
        {
          "indexed": false,
          "internalType": "int256",
          "name": "temperature",
          "type": "int256"
        },
        {
          "indexed": false,
          "internalType": "uint256",
          "name": "pressure",
          "type": "uint256"
        },
        {
          "indexed": false,
          "internalType": "uint256",
          "name": "humidity",
          "type": "uint256"
        },
        {
          "indexed": false,
          "internalType": "uint256",
          "name": "luminosity",
          "type": "uint256"
        }
      ],
      "name": "NewReading",
      "type": "event"
    },
    {
      "inputs": [],
      "name": "reading",
      "outputs": [
        {
          "internalType": "uint256",
          "name": "timestamp",
          "type": "uint256"
        },
        {
          "internalType": "int256",
          "name": "temperature",
          "type": "int256"
        },
        {
          "internalType": "uint256",
          "name": "pressure",
          "type": "uint256"
        },
        {
          "internalType": "uint256",
          "name": "humidity",
          "type": "uint256"
        },
        {
          "internalType": "uint256",
          "name": "luminosity",
          "type": "uint256"
        }
      ],
      "stateMutability": "view",
      "type": "function",
      "constant": true
    },
    {
      "inputs": [
        {
          "internalType": "int256",
          "name": "_temperature",
          "type": "int256"
        },
        {
          "internalType": "uint256",
          "name": "_pressure",
          "type": "uint256"
        },
        {
          "internalType": "uint256",
          "name": "_humidity",
          "type": "uint256"
        },
        {
          "internalType": "uint256",
          "name": "_luminosity",
          "type": "uint256"
        }
      ],
      "name": "recordReading",
      "outputs": [],
      "stateMutability": "nonpayable",
      "type": "function"
    },
    {
      "inputs": [],
      "name": "getReading",
      "outputs": [
        {
          "components": [
            {
              "internalType": "uint256",
              "name": "timestamp",
              "type": "uint256"
            },
            {
              "internalType": "int256",
              "name": "temperature",
              "type": "int256"
            },
            {
              "internalType": "uint256",
              "name": "pressure",
              "type": "uint256"
            },
            {
              "internalType": "uint256",
              "name": "humidity",
              "type": "uint256"
            },
            {
              "internalType": "uint256",
              "name": "luminosity",
              "type": "uint256"
            }
          ],
          "internalType": "struct EnvironmentalData.EnvironmentalReading",
          "name": "",
          "type": "tuple"
        }
      ],
      "stateMutability": "view",
      "type": "function",
      "constant": true
    }
  ],
  "bytecode": "0x608060405234801561001057600080fd5b5061044d806100206000396000f3fe608060405234801561001057600080fd5b50600436106100415760003560e01c806324769601146100465780635e34a5ac14610064578063fffd52c614610080575b600080fd5b61004e6100a2565b60405161005b9190610282565b60405180910390f35b61007e600480360381019061007991906102fa565b6100ee565b005b610088610195565b60405161009995949392919061037f565b60405180910390f35b6100aa6101b9565b60006040518060a001604052908160008201548152602001600182015481526020016002820154815260200160038201548152602001600482015481525050905090565b60006040518060a0016040528042815260200186815260200185815260200184815260200183815250905080600080820151816000015560208201518160010155604082015181600201556060820151816003015560808201518160040155905050427f8f66fe1cf1407981d81a8b94f3a1e0db828c5488042fd7c5be8003d7607433838686868660405161018694939291906103d2565b60405180910390a25050505050565b60008060000154908060010154908060020154908060030154908060040154905085565b6040518060a0016040528060008152602001600081526020016000815260200160008152602001600081525090565b6000819050919050565b6101fb816101e8565b82525050565b6000819050919050565b61021481610201565b82525050565b60a08201600082015161023060008501826101f2565b506020820151610243602085018261020b565b50604082015161025660408501826101f2565b50606082015161026960608501826101f2565b50608082015161027c60808501826101f2565b50505050565b600060a082019050610297600083018461021a565b92915050565b600080fd5b6102ab81610201565b81146102b657600080fd5b50565b6000813590506102c8816102a2565b92915050565b6102d7816101e8565b81146102e257600080fd5b50565b6000813590506102f4816102ce565b92915050565b600080600080608085870312156103145761031361029d565b5b6000610322878288016102b9565b9450506020610333878288016102e5565b9350506040610344878288016102e5565b9250506060610355878288016102e5565b91505092959194509250565b61036a816101e8565b82525050565b61037981610201565b82525050565b600060a0820190506103946000830188610361565b6103a16020830187610370565b6103ae6040830186610361565b6103bb6060830185610361565b6103c86080830184610361565b9695505050505050565b60006080820190506103e76000830187610370565b6103f46020830186610361565b6104016040830185610361565b61040e6060830184610361565b9594505050505056fea2646970667358221220d2f83fb31f3b95bd040c980fe68c3fa458cbe4be1b6b67ade911420e78bb52f264736f6c63430008110033",
  "immutableReferences": {},
  "source": "// SPDX-License-Identifier: MIT\npragma solidity ^0.8.0;\n\ncontract EnvironmentalData {\n    // Estructura para almacenar los datos ambientales\n    struct EnvironmentalReading {\n        uint256 timestamp; // Marca de tiempo\n        int256 temperature; // Temperatura en grados Celsius\n        uint256 pressure;   // Presin en hPa\n        uint256 humidity;   // Humedad relativa en porcentaje\n        uint256 luminosity; // Luminosidad en lux\n    }\n\n    // Arreglo dinmico para almacenar el historial de lecturas\n    EnvironmentalReading public reading;\n\n    // Evento para notificar que se registr una nueva lectura\n    event NewReading(\n        uint256 indexed timestamp,\n        int256 temperature,\n        uint256 pressure,\n        uint256 humidity,\n        uint256 luminosity\n    );\n\n    // Funcin para registrar una nueva lectura\n    function recordReading(\n        int256 _temperature,\n        uint256 _pressure,\n        uint256 _humidity,\n        uint256 _luminosity\n    ) public {\n        // Crear una nueva lectura\n        EnvironmentalReading memory newReading = EnvironmentalReading({\n            timestamp: block.timestamp,\n            temperature: _temperature,\n            pressure: _pressure,\n            humidity: _humidity,\n            luminosity: _luminosity\n        });\n\n        reading = newReading;\n\n        // Emitir el evento\n        emit NewReading(block.timestamp, _temperature, _pressure, _humidity, _luminosity);\n    }\n\n\n    function getReading() public view returns (EnvironmentalReading memory) {\n        return reading;\n    }\n\n}\n",
  "sourcePath": "/app/contracts/EnvironmentalData.sol",
  "compiler": {
    "name": "solc",
    "version": "0.8.17+commit.8df45f5f.Emscripten.clang"
  },
  "schemaVersion": "3.4.16",
  "updatedAt": "2025-01-16T21:35:39.421Z",
  "networkType": "ethereum",
  "devdoc": {
    "kind": "dev",
    "methods": {},
    "version": 1
  },
  "userdoc": {
    "kind": "user",
    "methods": {},
    "version": 1
  }
}