{
  "contractName": "EnvironmentalDataStoredMulti",
  "abi": [
    {
      "anonymous": false,
      "inputs": [
        {
          "indexed": true,
          "internalType": "uint256",
          "name": "timestamp",
          "type": "uint256"
        },
        {
          "indexed": false,
          "internalType": "int256",
          "name": "temperature",
          "type": "int256"
        },
        {
          "indexed": false,
          "internalType": "uint256",
          "name": "pressure",
          "type": "uint256"
        },
        {
          "indexed": false,
          "internalType": "uint256",
          "name": "humidity",
          "type": "uint256"
        },
        {
          "indexed": false,
          "internalType": "uint256",
          "name": "luminosity",
          "type": "uint256"
        }
      ],
      "name": "NewReading",
      "type": "event"
    },
    {
      "inputs": [
        {
          "internalType": "uint256",
          "name": "",
          "type": "uint256"
        }
      ],
      "name": "reading",
      "outputs": [
        {
          "internalType": "uint256",
          "name": "timestamp",
          "type": "uint256"
        },
        {
          "internalType": "int256",
          "name": "temperature",
          "type": "int256"
        },
        {
          "internalType": "uint256",
          "name": "pressure",
          "type": "uint256"
        },
        {
          "internalType": "uint256",
          "name": "humidity",
          "type": "uint256"
        },
        {
          "internalType": "uint256",
          "name": "luminosity",
          "type": "uint256"
        }
      ],
      "stateMutability": "view",
      "type": "function",
      "constant": true
    },
    {
      "inputs": [
        {
          "internalType": "int256",
          "name": "_temperature",
          "type": "int256"
        },
        {
          "internalType": "uint256",
          "name": "_pressure",
          "type": "uint256"
        },
        {
          "internalType": "uint256",
          "name": "_humidity",
          "type": "uint256"
        },
        {
          "internalType": "uint256",
          "name": "_luminosity",
          "type": "uint256"
        }
      ],
      "name": "recordReading",
      "outputs": [],
      "stateMutability": "nonpayable",
      "type": "function"
    },
    {
      "inputs": [],
      "name": "getReading",
      "outputs": [
        {
          "components": [
            {
              "internalType": "uint256",
              "name": "timestamp",
              "type": "uint256"
            },
            {
              "internalType": "int256",
              "name": "temperature",
              "type": "int256"
            },
            {
              "internalType": "uint256",
              "name": "pressure",
              "type": "uint256"
            },
            {
              "internalType": "uint256",
              "name": "humidity",
              "type": "uint256"
            },
            {
              "internalType": "uint256",
              "name": "luminosity",
              "type": "uint256"
            }
          ],
          "internalType": "struct EnvironmentalDataStoredMulti.EnvironmentalReading[]",
          "name": "",
          "type": "tuple[]"
        }
      ],
      "stateMutability": "view",
      "type": "function",
      "constant": true
    }
  ],
  "bytecode": "0x608060405234801561001057600080fd5b506105a3806100206000396000f3fe608060405234801561001057600080fd5b50600436106100415760003560e01c806324769601146100465780635e34a5ac14610064578063875fe7fa14610080575b600080fd5b61004e6100b4565b60405161005b91906103a4565b60405180910390f35b61007e60048036038101906100799190610423565b610145565b005b61009a6004803603810190610095919061048a565b610215565b6040516100ab9594939291906104d5565b60405180910390f35b60606000805480602002602001604051908101604052809291908181526020016000905b8282101561013c57838290600052602060002090600502016040518060a001604052908160008201548152602001600182015481526020016002820154815260200160038201548152602001600482015481525050815260200190600101906100d8565b50505050905090565b60006040518060a00160405280428152602001868152602001858152602001848152602001838152509050600081908060018154018082558091505060019003906000526020600020906005020160009091909190915060008201518160000155602082015181600101556040820151816002015560608201518160030155608082015181600401555050427f8f66fe1cf1407981d81a8b94f3a1e0db828c5488042fd7c5be8003d760743383868686866040516102069493929190610528565b60405180910390a25050505050565b6000818154811061022557600080fd5b90600052602060002090600502016000915090508060000154908060010154908060020154908060030154908060040154905085565b600081519050919050565b600082825260208201905092915050565b6000819050602082019050919050565b6000819050919050565b61029a81610287565b82525050565b6000819050919050565b6102b3816102a0565b82525050565b60a0820160008201516102cf6000850182610291565b5060208201516102e260208501826102aa565b5060408201516102f56040850182610291565b5060608201516103086060850182610291565b50608082015161031b6080850182610291565b50505050565b600061032d83836102b9565b60a08301905092915050565b6000602082019050919050565b60006103518261025b565b61035b8185610266565b935061036683610277565b8060005b8381101561039757815161037e8882610321565b975061038983610339565b92505060018101905061036a565b5085935050505092915050565b600060208201905081810360008301526103be8184610346565b905092915050565b600080fd5b6103d4816102a0565b81146103df57600080fd5b50565b6000813590506103f1816103cb565b92915050565b61040081610287565b811461040b57600080fd5b50565b60008135905061041d816103f7565b92915050565b6000806000806080858703121561043d5761043c6103c6565b5b600061044b878288016103e2565b945050602061045c8782880161040e565b935050604061046d8782880161040e565b925050606061047e8782880161040e565b91505092959194509250565b6000602082840312156104a05761049f6103c6565b5b60006104ae8482850161040e565b91505092915050565b6104c081610287565b82525050565b6104cf816102a0565b82525050565b600060a0820190506104ea60008301886104b7565b6104f760208301876104c6565b61050460408301866104b7565b61051160608301856104b7565b61051e60808301846104b7565b9695505050505050565b600060808201905061053d60008301876104c6565b61054a60208301866104b7565b61055760408301856104b7565b61056460608301846104b7565b9594505050505056fea26469706673582212204303102ef0ebb6210d69480787d91466905f1478dc7f3e77432347b26615c8ad64736f6c63430008110033",
  "immutableReferences": {},
  "source": "// SPDX-License-Identifier: MIT\npragma solidity ^0.8.0;\n\ncontract EnvironmentalDataStoredMulti {\n    // Estructura para almacenar los datos ambientales\n    struct EnvironmentalReading {\n        uint256 timestamp; // Marca de tiempo\n        int256 temperature; // Temperatura en grados Celsius\n        uint256 pressure;   // Presin en hPa\n        uint256 humidity;   // Humedad relativa en porcentaje\n        uint256 luminosity; // Luminosidad en lux\n    }\n\n    // Arreglo dinmico para almacenar el historial de lecturas\n    EnvironmentalReading[] public reading;\n\n    // Evento para notificar que se registr una nueva lectura\n    event NewReading(\n        uint256 indexed timestamp,\n        int256 temperature,\n        uint256 pressure,\n        uint256 humidity,\n        uint256 luminosity\n    );\n\n    // Funcin para registrar una nueva lectura\n    function recordReading(\n        int256 _temperature,\n        uint256 _pressure,\n        uint256 _humidity,\n        uint256 _luminosity\n    ) public {\n        // Crear una nueva lectura\n        EnvironmentalReading memory newReading = EnvironmentalReading({\n            timestamp: block.timestamp,\n            temperature: _temperature,\n            pressure: _pressure,\n            humidity: _humidity,\n            luminosity: _luminosity\n        });\n\n        // reading = newReading;\n        reading.push(newReading);\n\n        // Emitir el evento\n        emit NewReading(block.timestamp, _temperature, _pressure, _humidity, _luminosity);\n    }\n\n\n    function getReading() public view returns (EnvironmentalReading[] memory) {\n        return reading;\n    }\n\n}\n",
  "sourcePath": "/app/contracts/EnvironmentalDataStoredMulti.sol",
  "compiler": {
    "name": "solc",
    "version": "0.8.17+commit.8df45f5f.Emscripten.clang"
  },
  "schemaVersion": "3.4.16",
  "updatedAt": "2025-04-20T19:39:02.943Z",
  "networkType": "ethereum",
  "devdoc": {
    "kind": "dev",
    "methods": {},
    "version": 1
  },
  "userdoc": {
    "kind": "user",
    "methods": {},
    "version": 1
  }
}