{
  "contractName": "EnvironmentalData",
  "abi": [
    {
      "anonymous": false,
      "inputs": [
        {
          "indexed": true,
          "internalType": "uint256",
          "name": "timestamp",
          "type": "uint256"
        },
        {
          "indexed": false,
          "internalType": "int256",
          "name": "temperature",
          "type": "int256"
        },
        {
          "indexed": false,
          "internalType": "uint256",
          "name": "pressure",
          "type": "uint256"
        },
        {
          "indexed": false,
          "internalType": "uint256",
          "name": "humidity",
          "type": "uint256"
        },
        {
          "indexed": false,
          "internalType": "uint256",
          "name": "luminosity",
          "type": "uint256"
        }
      ],
      "name": "NewReading",
      "type": "event"
    },
    {
      "inputs": [
        {
          "internalType": "int256",
          "name": "_temperature",
          "type": "int256"
        },
        {
          "internalType": "uint256",
          "name": "_pressure",
          "type": "uint256"
        },
        {
          "internalType": "uint256",
          "name": "_humidity",
          "type": "uint256"
        },
        {
          "internalType": "uint256",
          "name": "_luminosity",
          "type": "uint256"
        }
      ],
      "name": "recordReading",
      "outputs": [],
      "stateMutability": "nonpayable",
      "type": "function"
    }
  ],
  "bytecode": "0x608060405234801561001057600080fd5b50610201806100206000396000f3fe608060405234801561001057600080fd5b506004361061002b5760003560e01c80635e34a5ac14610030575b600080fd5b61004a60048036038101906100459190610101565b61004c565b005b427f8f66fe1cf1407981d81a8b94f3a1e0db828c5488042fd7c5be8003d760743383858585856040516100829493929190610186565b60405180910390a250505050565b600080fd5b6000819050919050565b6100a881610095565b81146100b357600080fd5b50565b6000813590506100c58161009f565b92915050565b6000819050919050565b6100de816100cb565b81146100e957600080fd5b50565b6000813590506100fb816100d5565b92915050565b6000806000806080858703121561011b5761011a610090565b5b6000610129878288016100b6565b945050602061013a878288016100ec565b935050604061014b878288016100ec565b925050606061015c878288016100ec565b91505092959194509250565b61017181610095565b82525050565b610180816100cb565b82525050565b600060808201905061019b6000830187610168565b6101a86020830186610177565b6101b56040830185610177565b6101c26060830184610177565b9594505050505056fea2646970667358221220e230e7b9756459c0cf0a2265e25f8d25d4b6b76f06b15c6b88b568b699e5dbc764736f6c63430008110033",
  "immutableReferences": {},
  "source": "// SPDX-License-Identifier: MIT\npragma solidity ^0.8.0;\n\ncontract EnvironmentalData {\n    // Estructura para almacenar los datos ambientales\n    struct EnvironmentalReading {\n        uint256 timestamp; // Marca de tiempo\n        int256 temperature; // Temperatura en grados Celsius\n        uint256 pressure;   // Presin en hPa\n        uint256 humidity;   // Humedad relativa en porcentaje\n        uint256 luminosity; // Luminosidad en lux\n    }\n\n    // Arreglo dinmico para almacenar el historial de lecturas\n    // EnvironmentalReading[] public reading;\n\n    // Evento para notificar que se registr una nueva lectura\n    event NewReading(\n        uint256 indexed timestamp,\n        int256 temperature,\n        uint256 pressure,\n        uint256 humidity,\n        uint256 luminosity\n    );\n\n    // Funcin para registrar una nueva lectura\n    function recordReading(\n        int256 _temperature,\n        uint256 _pressure,\n        uint256 _humidity,\n        uint256 _luminosity\n    ) public {\n        // Crear una nueva lectura\n        // EnvironmentalReading memory newReading = EnvironmentalReading({\n        //     timestamp: block.timestamp,\n        //     temperature: _temperature,\n        //     pressure: _pressure,\n        //     humidity: _humidity,\n        //     luminosity: _luminosity\n        // });\n\n        // reading = newReading;\n        // reading.push(newReading);\n\n        // Emitir el evento\n        emit NewReading(block.timestamp, _temperature, _pressure, _humidity, _luminosity);\n    }\n\n\n    // function getReading() public view returns (EnvironmentalReading[] memory) {\n    //     return reading;\n    // }\n\n}\n",
  "sourcePath": "/app/contracts/EnvironmentalData.sol",
  "compiler": {
    "name": "solc",
    "version": "0.8.17+commit.8df45f5f.Emscripten.clang"
  },
  "schemaVersion": "3.4.16",
  "updatedAt": "2025-05-04T12:20:17.539Z",
  "networkType": "ethereum",
  "devdoc": {
    "kind": "dev",
    "methods": {},
    "version": 1
  },
  "userdoc": {
    "kind": "user",
    "methods": {},
    "version": 1
  }
}