{
  "contractName": "Registry",
  "abi": [
    {
      "inputs": [],
      "stateMutability": "nonpayable",
      "type": "constructor"
    },
    {
      "anonymous": false,
      "inputs": [
        {
          "indexed": false,
          "internalType": "string",
          "name": "name",
          "type": "string"
        },
        {
          "indexed": false,
          "internalType": "address",
          "name": "contractAddress",
          "type": "address"
        }
      ],
      "name": "ContractRegistered",
      "type": "event"
    },
    {
      "inputs": [
        {
          "internalType": "string",
          "name": "",
          "type": "string"
        }
      ],
      "name": "contracts",
      "outputs": [
        {
          "internalType": "address",
          "name": "",
          "type": "address"
        }
      ],
      "stateMutability": "view",
      "type": "function",
      "constant": true
    },
    {
      "inputs": [],
      "name": "owner",
      "outputs": [
        {
          "internalType": "address",
          "name": "",
          "type": "address"
        }
      ],
      "stateMutability": "view",
      "type": "function",
      "constant": true
    },
    {
      "inputs": [
        {
          "internalType": "string",
          "name": "name",
          "type": "string"
        },
        {
          "internalType": "address",
          "name": "contractAddress",
          "type": "address"
        }
      ],
      "name": "registerContract",
      "outputs": [],
      "stateMutability": "nonpayable",
      "type": "function"
    },
    {
      "inputs": [
        {
          "internalType": "string",
          "name": "name",
          "type": "string"
        }
      ],
      "name": "getContract",
      "outputs": [
        {
          "internalType": "address",
          "name": "",
          "type": "address"
        }
      ],
      "stateMutability": "view",
      "type": "function",
      "constant": true
    },
    {
      "inputs": [],
      "name": "getAllEntries",
      "outputs": [
        {
          "components": [
            {
              "internalType": "string",
              "name": "contractName",
              "type": "string"
            },
            {
              "internalType": "address",
              "name": "contractAddress",
              "type": "address"
            }
          ],
          "internalType": "struct Registry.RegistryEntry[]",
          "name": "",
          "type": "tuple[]"
        }
      ],
      "stateMutability": "view",
      "type": "function",
      "constant": true
    }
  ],
  "bytecode": "0x608060405234801561001057600080fd5b50336000806101000a81548173ffffffffffffffffffffffffffffffffffffffff021916908373ffffffffffffffffffffffffffffffffffffffff160217905550610f6a806100606000396000f3fe608060405234801561001057600080fd5b50600436106100575760003560e01c8063358177731461005c5780634a0364e81461008c5780637f3c2c28146100aa5780638c5b8385146100c65780638da5cb5b146100f6575b600080fd5b61007660048036038101906100719190610627565b610114565b60405161008391906106b5565b60405180910390f35b61009461015f565b6040516100a1919061086e565b60405180910390f35b6100c460048036038101906100bf91906108bc565b6102a6565b005b6100e060048036038101906100db9190610a4c565b610541565b6040516100ed91906106b5565b60405180910390f35b6100fe61058a565b60405161010b91906106b5565b60405180910390f35b600060018383604051610128929190610ac5565b908152602001604051809103902060009054906101000a900473ffffffffffffffffffffffffffffffffffffffff16905092915050565b60606002805480602002602001604051908101604052809291908181526020016000905b8282101561029d57838290600052602060002090600202016040518060400160405290816000820180546101b690610b0d565b80601f01602080910402602001604051908101604052809291908181526020018280546101e290610b0d565b801561022f5780601f106102045761010080835404028352916020019161022f565b820191906000526020600020905b81548152906001019060200180831161021257829003601f168201915b505050505081526020016001820160009054906101000a900473ffffffffffffffffffffffffffffffffffffffff1673ffffffffffffffffffffffffffffffffffffffff1673ffffffffffffffffffffffffffffffffffffffff168152505081526020019060010190610183565b50505050905090565b60008054906101000a900473ffffffffffffffffffffffffffffffffffffffff1673ffffffffffffffffffffffffffffffffffffffff163373ffffffffffffffffffffffffffffffffffffffff1614610334576040517f08c379a000000000000000000000000000000000000000000000000000000000815260040161032b90610bc1565b60405180910390fd5b600073ffffffffffffffffffffffffffffffffffffffff168173ffffffffffffffffffffffffffffffffffffffff16036103a3576040517f08c379a000000000000000000000000000000000000000000000000000000000815260040161039a90610c2d565b60405180910390fd5b80600184846040516103b6929190610ac5565b908152602001604051809103902060006101000a81548173ffffffffffffffffffffffffffffffffffffffff021916908373ffffffffffffffffffffffffffffffffffffffff1602179055506000604051806040016040528085858080601f016020809104026020016040519081016040528093929190818152602001838380828437600081840152601f19601f8201169050808301925050505050505081526020018373ffffffffffffffffffffffffffffffffffffffff168152509050600281908060018154018082558091505060019003906000526020600020906002020160009091909190915060008201518160000190816104b69190610e03565b5060208201518160010160006101000a81548173ffffffffffffffffffffffffffffffffffffffff021916908373ffffffffffffffffffffffffffffffffffffffff16021790555050507f2a88e68a891ddb61f7aebfdeefd9fb74964fcd5371b692ea59cca73fc58f480584848460405161053393929190610f02565b60405180910390a150505050565b6001818051602081018201805184825260208301602085012081835280955050505050506000915054906101000a900473ffffffffffffffffffffffffffffffffffffffff1681565b60008054906101000a900473ffffffffffffffffffffffffffffffffffffffff1681565b6000604051905090565b600080fd5b600080fd5b600080fd5b600080fd5b600080fd5b60008083601f8401126105e7576105e66105c2565b5b8235905067ffffffffffffffff811115610604576106036105c7565b5b6020830191508360018202830111156106205761061f6105cc565b5b9250929050565b6000806020838503121561063e5761063d6105b8565b5b600083013567ffffffffffffffff81111561065c5761065b6105bd565b5b610668858286016105d1565b92509250509250929050565b600073ffffffffffffffffffffffffffffffffffffffff82169050919050565b600061069f82610674565b9050919050565b6106af81610694565b82525050565b60006020820190506106ca60008301846106a6565b92915050565b600081519050919050565b600082825260208201905092915050565b6000819050602082019050919050565b600081519050919050565b600082825260208201905092915050565b60005b8381101561073657808201518184015260208101905061071b565b60008484015250505050565b6000601f19601f8301169050919050565b600061075e826106fc565b6107688185610707565b9350610778818560208601610718565b61078181610742565b840191505092915050565b61079581610694565b82525050565b600060408301600083015184820360008601526107b88282610753565b91505060208301516107cd602086018261078c565b508091505092915050565b60006107e4838361079b565b905092915050565b6000602082019050919050565b6000610804826106d0565b61080e81856106db565b935083602082028501610820856106ec565b8060005b8581101561085c578484038952815161083d85826107d8565b9450610848836107ec565b925060208a01995050600181019050610824565b50829750879550505050505092915050565b6000602082019050818103600083015261088881846107f9565b905092915050565b61089981610694565b81146108a457600080fd5b50565b6000813590506108b681610890565b92915050565b6000806000604084860312156108d5576108d46105b8565b5b600084013567ffffffffffffffff8111156108f3576108f26105bd565b5b6108ff868287016105d1565b93509350506020610912868287016108a7565b9150509250925092565b600080fd5b7f4e487b7100000000000000000000000000000000000000000000000000000000600052604160045260246000fd5b61095982610742565b810181811067ffffffffffffffff8211171561097857610977610921565b5b80604052505050565b600061098b6105ae565b90506109978282610950565b919050565b600067ffffffffffffffff8211156109b7576109b6610921565b5b6109c082610742565b9050602081019050919050565b82818337600083830152505050565b60006109ef6109ea8461099c565b610981565b905082815260208101848484011115610a0b57610a0a61091c565b5b610a168482856109cd565b509392505050565b600082601f830112610a3357610a326105c2565b5b8135610a438482602086016109dc565b91505092915050565b600060208284031215610a6257610a616105b8565b5b600082013567ffffffffffffffff811115610a8057610a7f6105bd565b5b610a8c84828501610a1e565b91505092915050565b600081905092915050565b6000610aac8385610a95565b9350610ab98385846109cd565b82840190509392505050565b6000610ad2828486610aa0565b91508190509392505050565b7f4e487b7100000000000000000000000000000000000000000000000000000000600052602260045260246000fd5b60006002820490506001821680610b2557607f821691505b602082108103610b3857610b37610ade565b5b50919050565b600082825260208201905092915050565b7f4f6e6c7920746865206f776e65722063616e20706572666f726d20746869732060008201527f616374696f6e0000000000000000000000000000000000000000000000000000602082015250565b6000610bab602683610b3e565b9150610bb682610b4f565b604082019050919050565b60006020820190508181036000830152610bda81610b9e565b9050919050565b7f496e76616c696420636f6e747261637420616464726573730000000000000000600082015250565b6000610c17601883610b3e565b9150610c2282610be1565b602082019050919050565b60006020820190508181036000830152610c4681610c0a565b9050919050565b60008190508160005260206000209050919050565b60006020601f8301049050919050565b600082821b905092915050565b600060088302610caf7fffffffffffffffffffffffffffffffffffffffffffffffffffffffffffffffff82610c72565b610cb98683610c72565b95508019841693508086168417925050509392505050565b6000819050919050565b6000819050919050565b6000610d00610cfb610cf684610cd1565b610cdb565b610cd1565b9050919050565b6000819050919050565b610d1a83610ce5565b610d2e610d2682610d07565b848454610c7f565b825550505050565b600090565b610d43610d36565b610d4e818484610d11565b505050565b5b81811015610d7257610d67600082610d3b565b600181019050610d54565b5050565b601f821115610db757610d8881610c4d565b610d9184610c62565b81016020851015610da0578190505b610db4610dac85610c62565b830182610d53565b50505b505050565b600082821c905092915050565b6000610dda60001984600802610dbc565b1980831691505092915050565b6000610df38383610dc9565b9150826002028217905092915050565b610e0c826106fc565b67ffffffffffffffff811115610e2557610e24610921565b5b610e2f8254610b0d565b610e3a828285610d76565b600060209050601f831160018114610e6d5760008415610e5b578287015190505b610e658582610de7565b865550610ecd565b601f198416610e7b86610c4d565b60005b82811015610ea357848901518255600182019150602085019450602081019050610e7e565b86831015610ec05784890151610ebc601f891682610dc9565b8355505b6001600288020188555050505b505050505050565b6000610ee18385610b3e565b9350610eee8385846109cd565b610ef783610742565b840190509392505050565b60006040820190508181036000830152610f1d818587610ed5565b9050610f2c60208301846106a6565b94935050505056fea2646970667358221220b1dc98b5523d56d38f7d07d2ce709751f09f4bd636c81d0523da58fb1d6cd09364736f6c63430008110033",
  "immutableReferences": {},
  "source": "// SPDX-License-Identifier: MIT\npragma solidity ^0.8.0;\n\ncontract Registry {\n\n    address public owner;\n    \n    mapping(string => address) public contracts; // Relaciona un nombre con la direccin del contrato\n\n\n\n    struct RegistryEntry {\n        string contractName;\n        address contractAddress;\n    }\n\n    RegistryEntry[] entries;\n\n    event ContractRegistered(string name, address contractAddress);\n\n    modifier onlyOwner() {\n        require(msg.sender == owner, \"Only the owner can perform this action\");\n        _;\n    }\n\n    constructor() {\n        owner = msg.sender; // El que despliegue ser el propietario\n    }\n\n    function registerContract(string calldata name, address contractAddress) external onlyOwner {\n        require(contractAddress != address(0), \"Invalid contract address\");\n        contracts[name] = contractAddress;\n     \n        RegistryEntry memory newEntry = RegistryEntry({contractName:name , contractAddress: contractAddress});\n        entries.push(newEntry);\n\n        emit ContractRegistered(name, contractAddress);\n    }\n\n    function getContract(string calldata name) external view returns (address) {\n        return contracts[name];\n    }\n\n\n    function getAllEntries() external view returns(RegistryEntry[] memory){\n        return entries;\n    }\n\n}",
  "sourcePath": "/app/contracts/Registry.sol",
  "compiler": {
    "name": "solc",
    "version": "0.8.17+commit.8df45f5f.Emscripten.clang"
  },
  "schemaVersion": "3.4.16",
  "updatedAt": "2025-04-20T19:39:02.954Z",
  "networkType": "ethereum",
  "devdoc": {
    "kind": "dev",
    "methods": {},
    "version": 1
  },
  "userdoc": {
    "kind": "user",
    "methods": {},
    "version": 1
  }
}